{
    "contractName": "CCIPSender_Unsafe",
    "abi": [
        {
            "inputs": [
                {
                    "internalType": "address",
                    "name": "_link",
                    "type": "address"
                },
                {
                    "internalType": "address",
                    "name": "_router",
                    "type": "address"
                }
            ],
            "stateMutability": "nonpayable",
            "type": "constructor"
        },
        {
            "inputs": [
                {
                    "internalType": "address",
                    "name": "receiver",
                    "type": "address"
                },
                {
                    "internalType": "string",
                    "name": "someText",
                    "type": "string"
                },
                {
                    "internalType": "uint64",
                    "name": "destinationChainSelector",
                    "type": "uint64"
                }
            ],
            "name": "send",
            "outputs": [],
            "stateMutability": "nonpayable",
            "type": "function"
        }
    ],
    "bytecode": "608080604052346100ee576040816104cb803803809161001f82856100f2565b8339810103126100ee5761003e602061003783610129565b9201610129565b602060018060a01b03809316604460018060a01b03195f95869584838854161787551680916001541617600155604051948593849263095ea7b360e01b845260048401525f1960248401525af180156100e3576100a5575b60405161038d908161013e8239f35b6020813d82116100db575b816100bd602093836100f2565b810103126100d75751801515036100d45780610096565b80fd5b5080fd5b3d91506100b0565b6040513d84823e3d90fd5b5f80fd5b601f909101601f19168101906001600160401b0382119082101761011557604052565b634e487b7160e01b5f52604160045260245ffd5b51906001600160a01b03821682036100ee5756fe6080604090808252600480361015610015575f80fd5b5f92833560e01c63570b31f01461002a575f80fd5b346102c35760603660031901126102c3576001600160a01b0392823584811691908290036102bf5760249081359567ffffffffffffffff908188116102bb57366023890112156102bb5787870135978289116102a95789906020996100988b601f19601f84011601876102f7565b808652368782840101116102a55780878c93018388013785010152604435948286168096036102a15786519089820152888152868101938185108486111761028f57816100f561010792878b528c60608401526080830190610319565b03605f1981018652603f1901856102f7565b865194610113866102c7565b8a8652828b54169188519460a08601908682109082111761027d57928c9594918c999b989397948b5285528885019384528985019283526060850190815289519261015d846102c7565b868452608086019384526001958b848854169981519e8f9c8d6396f4e9f960e01b90528d01528b01525160448a0160a0905260e48a0161019c91610319565b945160431995868b82030160648c01526101b591610319565b905195858a83030160848b01528a8088519384815201970191885b8d828210610247575050505050926101ff92889695928795511660a486015251908483030160c4850152610319565b03925af190811561023e5750610213578280f35b813d8311610237575b61022681836102f7565b81010312610234575f808280f35b80fd5b503d61021c565b513d85823e3d90fd5b9195989094979a9c8484989b508194959d50518a81511683520151838201520199019101908d96938c9996938e9b9996936101d0565b634e487b7160e01b8d5260418b52828dfd5b634e487b7160e01b8b5260418952858bfd5b8980fd5b8280fd5b634e487b7160e01b8a5260418852848afd5b8880fd5b8580fd5b8380fd5b6020810190811067ffffffffffffffff8211176102e357604052565b634e487b7160e01b5f52604160045260245ffd5b90601f8019910116810190811067ffffffffffffffff8211176102e357604052565b91908251928382525f5b848110610343575050825f602080949584010152601f8019910116010190565b60208183018101518483018201520161032356fea26469706673582212206722c61d5de471aaf58f475ff0db4ac0cc64c165923ee9ef430b7c068ca5647264736f6c63430008140033",
    "sourcePath": "c:/Users/chaco/Desktop/Cross-Chain-Bridge/contracts/src/CCIPSender_Unsafe.sol",
    "compiler": {
        "name": "solc",
        "version": "0.8.20+commit.a1b79de6"
    },
    "functionHashes": {
        "send(address,string,uint64)": "570b31f0"
    },
    "gasEstimates": {
        "creation": {
            "codeDepositCost": "181800",
            "executionCost": "infinite",
            "totalCost": "infinite"
        },
        "external": {
            "send(address,string,uint64)": "infinite"
        }
    }
}